{"abi":[{"type":"constructor","inputs":[],"stateMutability":"nonpayable"},{"type":"function","name":"getSettlement","inputs":[{"name":"marketId","type":"bytes32","internalType":"bytes32"}],"outputs":[{"name":"merkleRoot","type":"bytes32","internalType":"bytes32"},{"name":"outcome","type":"uint256","internalType":"uint256"},{"name":"decidedAt","type":"uint256","internalType":"uint256"}],"stateMutability":"view"},{"type":"function","name":"owner","inputs":[],"outputs":[{"name":"","type":"address","internalType":"address"}],"stateMutability":"view"},{"type":"function","name":"settlements","inputs":[{"name":"","type":"bytes32","internalType":"bytes32"}],"outputs":[{"name":"merkleRoot","type":"bytes32","internalType":"bytes32"},{"name":"outcome","type":"uint256","internalType":"uint256"},{"name":"decidedAt","type":"uint256","internalType":"uint256"},{"name":"exists","type":"bool","internalType":"bool"}],"stateMutability":"view"},{"type":"function","name":"submitSettlement","inputs":[{"name":"marketId","type":"bytes32","internalType":"bytes32"},{"name":"merkleRoot","type":"bytes32","internalType":"bytes32"},{"name":"outcome","type":"uint256","internalType":"uint256"},{"name":"decidedAt","type":"uint256","internalType":"uint256"}],"outputs":[],"stateMutability":"nonpayable"},{"type":"function","name":"verifyReport","inputs":[{"name":"marketId","type":"bytes32","internalType":"bytes32"},{"name":"leaf","type":"bytes32","internalType":"bytes32"},{"name":"proof","type":"bytes32[]","internalType":"bytes32[]"}],"outputs":[{"name":"","type":"bool","internalType":"bool"}],"stateMutability":"view"},{"type":"event","name":"MarketSettled","inputs":[{"name":"marketId","type":"bytes32","indexed":true,"internalType":"bytes32"},{"name":"merkleRoot","type":"bytes32","indexed":false,"internalType":"bytes32"},{"name":"outcome","type":"uint256","indexed":false,"internalType":"uint256"}],"anonymous":false}],"bytecode":{"object":"0x6080604052348015600e575f5ffd5b50335f5f6101000a81548173ffffffffffffffffffffffffffffffffffffffff021916908373ffffffffffffffffffffffffffffffffffffffff160217905550610aa28061005b5f395ff3fe608060405234801561000f575f5ffd5b5060043610610055575f3560e01c806301bc95e21461005957806342528faa1461008c5780638da5cb5b146100bc578063c3e6ace0146100da578063d12274921461010c575b5f5ffd5b610073600480360381019061006e91906105b3565b610128565b604051610083949392919061061f565b60405180910390f35b6100a660048036038101906100a191906106c3565b610160565b6040516100b39190610734565b60405180910390f35b6100c461022e565b6040516100d1919061078c565b60405180910390f35b6100f460048036038101906100ef91906105b3565b610252565b604051610103939291906107a5565b60405180910390f35b61012660048036038101906101219190610804565b610327565b005b6001602052805f5260405f205f91509050805f015490806001015490806002015490806003015f9054906101000a900460ff16905084565b5f60015f8681526020019081526020015f206003015f9054906101000a900460ff166101c1576040517f08c379a00000000000000000000000000000000000000000000000000000000081526004016101b8906108c2565b60405180910390fd5b5f60015f8781526020019081526020015f205f015490506102238484808060200260200160405190810160405280939291908181526020018383602002808284375f81840152601f19601f820116905080830192505050505050508287610443565b915050949350505050565b5f5f9054906101000a900473ffffffffffffffffffffffffffffffffffffffff1681565b5f5f5f60015f8581526020019081526020015f206003015f9054906101000a900460ff166102b5576040517f08c379a00000000000000000000000000000000000000000000000000000000081526004016102ac9061092a565b60405180910390fd5b5f60015f8681526020019081526020015f206040518060800160405290815f82015481526020016001820154815260200160028201548152602001600382015f9054906101000a900460ff1615151515815250509050805f015181602001518260400151935093509350509193909250565b61032f610459565b60015f8581526020019081526020015f206003015f9054906101000a900460ff1615610390576040517f08c379a000000000000000000000000000000000000000000000000000000000815260040161038790610992565b60405180910390fd5b60405180608001604052808481526020018381526020018281526020016001151581525060015f8681526020019081526020015f205f820151815f015560208201518160010155604082015181600201556060820151816003015f6101000a81548160ff021916908315150217905550905050837f6c880cf59226ad93da583859dc11b246b1f7aa6b1c5614bf15ce878e4c2fe0a484846040516104359291906109b0565b60405180910390a250505050565b5f8261044f85846104e9565b1490509392505050565b5f5f9054906101000a900473ffffffffffffffffffffffffffffffffffffffff1673ffffffffffffffffffffffffffffffffffffffff163373ffffffffffffffffffffffffffffffffffffffff16146104e7576040517f08c379a00000000000000000000000000000000000000000000000000000000081526004016104de90610a21565b60405180910390fd5b565b5f5f8290505f5f90505b845181101561052f576105208286838151811061051357610512610a3f565b5b602002602001015161053a565b915080806001019150506104f3565b508091505092915050565b5f8183106105515761054c8284610564565b61055c565b61055b8383610564565b5b905092915050565b5f825f528160205260405f20905092915050565b5f5ffd5b5f5ffd5b5f819050919050565b61059281610580565b811461059c575f5ffd5b50565b5f813590506105ad81610589565b92915050565b5f602082840312156105c8576105c7610578565b5b5f6105d58482850161059f565b91505092915050565b6105e781610580565b82525050565b5f819050919050565b6105ff816105ed565b82525050565b5f8115159050919050565b61061981610605565b82525050565b5f6080820190506106325f8301876105de565b61063f60208301866105f6565b61064c60408301856105f6565b6106596060830184610610565b95945050505050565b5f5ffd5b5f5ffd5b5f5ffd5b5f5f83601f84011261068357610682610662565b5b8235905067ffffffffffffffff8111156106a05761069f610666565b5b6020830191508360208202830111156106bc576106bb61066a565b5b9250929050565b5f5f5f5f606085870312156106db576106da610578565b5b5f6106e88782880161059f565b94505060206106f98782880161059f565b935050604085013567ffffffffffffffff81111561071a5761071961057c565b5b6107268782880161066e565b925092505092959194509250565b5f6020820190506107475f830184610610565b92915050565b5f73ffffffffffffffffffffffffffffffffffffffff82169050919050565b5f6107768261074d565b9050919050565b6107868161076c565b82525050565b5f60208201905061079f5f83018461077d565b92915050565b5f6060820190506107b85f8301866105de565b6107c560208301856105f6565b6107d260408301846105f6565b949350505050565b6107e3816105ed565b81146107ed575f5ffd5b50565b5f813590506107fe816107da565b92915050565b5f5f5f5f6080858703121561081c5761081b610578565b5b5f6108298782880161059f565b945050602061083a8782880161059f565b935050604061084b878288016107f0565b925050606061085c878288016107f0565b91505092959194509250565b5f82825260208201905092915050565b7f4d61726b6574206e6f7420736574746c656400000000000000000000000000005f82015250565b5f6108ac601283610868565b91506108b782610878565b602082019050919050565b5f6020820190508181035f8301526108d9816108a0565b9050919050565b7f4e6f7420666f756e6400000000000000000000000000000000000000000000005f82015250565b5f610914600983610868565b915061091f826108e0565b602082019050919050565b5f6020820190508181035f83015261094181610908565b9050919050565b7f416c726561647920736574746c656400000000000000000000000000000000005f82015250565b5f61097c600f83610868565b915061098782610948565b602082019050919050565b5f6020820190508181035f8301526109a981610970565b9050919050565b5f6040820190506109c35f8301856105de565b6109d060208301846105f6565b9392505050565b7f4e6f7420617574686f72697a65640000000000000000000000000000000000005f82015250565b5f610a0b600e83610868565b9150610a16826109d7565b602082019050919050565b5f6020820190508181035f830152610a38816109ff565b9050919050565b7f4e487b71000000000000000000000000000000000000000000000000000000005f52603260045260245ffdfea264697066735822122093b868dad9ec3a97d698dd377e2768d32b0bec3923b849636ff23d8697600b7264736f6c63430008210033","linkReferences":{}},"methodIdentifiers":{"getSettlement(bytes32)":"c3e6ace0","owner()":"8da5cb5b","settlements(bytes32)":"01bc95e2","submitSettlement(bytes32,bytes32,uint256,uint256)":"d1227492","verifyReport(bytes32,bytes32,bytes32[])":"42528faa"},"id":18}